{
  "contractName": "MoneySender",
  "abi": [
    {
      "constant": false,
      "inputs": [
        {
          "internalType": "address payable",
          "name": "rec",
          "type": "address"
        }
      ],
      "name": "sendMoney",
      "outputs": [],
      "payable": false,
      "stateMutability": "nonpayable",
      "type": "function"
    }
  ],
  "bytecode": "0x608060405234801561001057600080fd5b5060ed8061001f6000396000f3fe6080604052348015600f57600080fd5b506004361060285760003560e01c8063338ccd7814602d575b600080fd5b606c60048036036020811015604157600080fd5b81019080803573ffffffffffffffffffffffffffffffffffffffff169060200190929190505050606e565b005b8073ffffffffffffffffffffffffffffffffffffffff166108fc60019081150290604051600060405180830381858888f1935050505015801560b4573d6000803e3d6000fd5b505056fea265627a7a72315820a79d206193571730c6cddb170c0404b56273a12e9ab660efd2832d7055b3df3064736f6c63430005100032",
  "source": "pragma solidity >=0.5.0;\n\ncontract MoneySender{\n    \n    \n    \n    function sendMoney(address payable rec) public {\n        \n        rec.transfer(1);\n        \n    }\n    \n}",
  "sourcePath": "/home/regmicmahesh/blockchain/hackathon-ku/contracts/MoneySender.sol",
  "compiler": {
    "name": "solc",
    "version": "0.5.16+commit.9c3226ce.Emscripten.clang"
  },
  "schemaVersion": "3.3.4",
  "updatedAt": "2021-02-20T11:15:40.715Z",
  "networkType": "ethereum",
  "devdoc": {
    "methods": {}
  },
  "userdoc": {
    "methods": {}
  }
}