{
  "contractName": "subAuthority",
  "abi": [
    {
      "inputs": [],
      "stateMutability": "nonpayable",
      "type": "constructor"
    },
    {
      "anonymous": false,
      "inputs": [
        {
          "indexed": false,
          "internalType": "address",
          "name": "whom",
          "type": "address"
        },
        {
          "indexed": false,
          "internalType": "address",
          "name": "who",
          "type": "address"
        },
        {
          "indexed": false,
          "internalType": "string",
          "name": "Id",
          "type": "string"
        }
      ],
      "name": "Register",
      "type": "event"
    },
    {
      "stateMutability": "payable",
      "type": "fallback",
      "payable": true
    },
    {
      "inputs": [
        {
          "internalType": "uint256",
          "name": "",
          "type": "uint256"
        }
      ],
      "name": "branches",
      "outputs": [
        {
          "internalType": "address",
          "name": "",
          "type": "address"
        }
      ],
      "stateMutability": "view",
      "type": "function",
      "constant": true
    },
    {
      "inputs": [],
      "name": "self",
      "outputs": [
        {
          "internalType": "address",
          "name": "",
          "type": "address"
        }
      ],
      "stateMutability": "view",
      "type": "function",
      "constant": true
    },
    {
      "inputs": [],
      "name": "upper",
      "outputs": [
        {
          "internalType": "address",
          "name": "",
          "type": "address"
        }
      ],
      "stateMutability": "view",
      "type": "function",
      "constant": true
    },
    {
      "stateMutability": "payable",
      "type": "receive",
      "payable": true
    },
    {
      "inputs": [
        {
          "internalType": "address",
          "name": "newAddress",
          "type": "address"
        }
      ],
      "name": "RegisterInbranches",
      "outputs": [],
      "stateMutability": "nonpayable",
      "type": "function"
    },
    {
      "inputs": [],
      "name": "GetBalance",
      "outputs": [
        {
          "internalType": "uint256",
          "name": "selfBalance",
          "type": "uint256"
        },
        {
          "internalType": "uint256",
          "name": "branchesBalance",
          "type": "uint256"
        }
      ],
      "stateMutability": "view",
      "type": "function",
      "constant": true
    },
    {
      "inputs": [
        {
          "internalType": "uint256",
          "name": "value",
          "type": "uint256"
        }
      ],
      "name": "Distribute",
      "outputs": [],
      "stateMutability": "nonpayable",
      "type": "function"
    }
  ],
  "bytecode": "0x608060405234801561001057600080fd5b50306000806101000a81548173ffffffffffffffffffffffffffffffffffffffff021916908373ffffffffffffffffffffffffffffffffffffffff160217905550610866806100606000396000f3fe6080604052600436106100595760003560e01c806344f9bbb0146100625780634bdf4a6d1461008b5780634def474a146100b65780637104ddb2146100df57806383cc76601461010a578063f8f8a9121461014757610060565b3661006057005b005b34801561006e57600080fd5b50610089600480360381019061008491906104fd565b610173565b005b34801561009757600080fd5b506100a0610232565b6040516100ad91906105ed565b60405180910390f35b3480156100c257600080fd5b506100dd60048036038101906100d89190610526565b610258565b005b3480156100eb57600080fd5b506100f46103b2565b60405161010191906105ed565b60405180910390f35b34801561011657600080fd5b50610131600480360381019061012c9190610526565b6103d6565b60405161013e91906105ed565b60405180910390f35b34801561015357600080fd5b5061015c610415565b60405161016a929190610664565b60405180910390f35b6002819080600181540180825580915050600190039060005260206000200160009091909190916101000a81548173ffffffffffffffffffffffffffffffffffffffff021916908373ffffffffffffffffffffffffffffffffffffffff1602179055507f696dc6366565cb253ac5f18b9738ff7f1353bf1554d64ed36a4548999e70ad9e8160008054906101000a900473ffffffffffffffffffffffffffffffffffffffff16604051610227929190610608565b60405180910390a150565b600160009054906101000a900473ffffffffffffffffffffffffffffffffffffffff1681565b60008054906101000a900473ffffffffffffffffffffffffffffffffffffffff1673ffffffffffffffffffffffffffffffffffffffff1631600280549050826102a191906106f4565b11156102e2576040517f08c379a00000000000000000000000000000000000000000000000000000000081526004016102d990610644565b60405180910390fd5b60005b6002805490508110156103ae576002818154811061032c577f4e487b7100000000000000000000000000000000000000000000000000000000600052603260045260246000fd5b9060005260206000200160009054906101000a900473ffffffffffffffffffffffffffffffffffffffff1673ffffffffffffffffffffffffffffffffffffffff166108fc839081150290604051600060405180830381858888f1935050505015801561039c573d6000803e3d6000fd5b50806103a79061078a565b90506102e5565b5050565b60008054906101000a900473ffffffffffffffffffffffffffffffffffffffff1681565b600281815481106103e657600080fd5b906000526020600020016000915054906101000a900473ffffffffffffffffffffffffffffffffffffffff1681565b600080600080600090505b6002805490508110156104c75760028181548110610467577f4e487b7100000000000000000000000000000000000000000000000000000000600052603260045260246000fd5b9060005260206000200160009054906101000a900473ffffffffffffffffffffffffffffffffffffffff1673ffffffffffffffffffffffffffffffffffffffff1631826104b4919061069e565b9150806104c09061078a565b9050610420565b50478192509250509091565b6000813590506104e281610802565b92915050565b6000813590506104f781610819565b92915050565b60006020828403121561050f57600080fd5b600061051d848285016104d3565b91505092915050565b60006020828403121561053857600080fd5b6000610546848285016104e8565b91505092915050565b6105588161074e565b82525050565b600061056b600b8361068d565b91507f525f617574686f726974790000000000000000000000000000000000000000006000830152602082019050919050565b60006105ab60148361068d565b91507f496e73756666696369656e742062616c616e63650000000000000000000000006000830152602082019050919050565b6105e781610780565b82525050565b6000602082019050610602600083018461054f565b92915050565b600060608201905061061d600083018561054f565b61062a602083018461054f565b818103604083015261063b8161055e565b90509392505050565b6000602082019050818103600083015261065d8161059e565b9050919050565b600060408201905061067960008301856105de565b61068660208301846105de565b9392505050565b600082825260208201905092915050565b60006106a982610780565b91506106b483610780565b9250827fffffffffffffffffffffffffffffffffffffffffffffffffffffffffffffffff038211156106e9576106e86107d3565b5b828201905092915050565b60006106ff82610780565b915061070a83610780565b9250817fffffffffffffffffffffffffffffffffffffffffffffffffffffffffffffffff0483118215151615610743576107426107d3565b5b828202905092915050565b600061075982610760565b9050919050565b600073ffffffffffffffffffffffffffffffffffffffff82169050919050565b6000819050919050565b600061079582610780565b91507fffffffffffffffffffffffffffffffffffffffffffffffffffffffffffffffff8214156107c8576107c76107d3565b5b600182019050919050565b7f4e487b7100000000000000000000000000000000000000000000000000000000600052601160045260246000fd5b61080b8161074e565b811461081657600080fd5b50565b61082281610780565b811461082d57600080fd5b5056fea264697066735822122038a7aa5c4364544d7eca8d9180adb33826352acafb268da1c85b025baa44052864736f6c63430008000033",
  "immutableReferences": {},
  "source": "// SPDX-License-Identifier: MIT\npragma solidity >=0.8.0 <0.9.0;\n\nabstract contract Root {\n    address public self; // address of self\n    address public upper; // address of upperbranches\n\n    function GetBalance() public virtual returns (uint256, uint256);\n}\n\nabstract contract Authority {\n    address[] public branches; // addresses of branches\n\n    // add a child to branches\n    function RegisterInbranches(address newAddress) public virtual;\n\n    // triggered on successful addition to branches\n    event Register(address whom, address who, string Id);\n\n    // fuctions to allow contract to hold credits\n    fallback() external payable {}\n\n    receive() external payable {}\n}\n\ncontract majorAuthority is Root, Authority {\n    constructor() {\n        self = msg.sender; // the person who deploys contract is the authority\n    }\n\n    function RegisterInbranches(address newAddress) public override {\n        branches.push(newAddress);\n        //MAYBE NOT\n        emit Register(newAddress, self, \"E_authority\");\n    }\n\n    function Distribute(uint256 value) public {\n        require(\n            value * branches.length <= address(self).balance,\n            \"Insufficient balance\"\n        );\n\n        for (uint256 i = 0; i < branches.length; ++i) {\n            payable(branches[i]).transfer(value);\n        }\n    }\n\n    function GetBalance()\n        public\n        view\n        override\n        returns (uint256 selfBalance, uint256 branchBalance)\n    {\n        uint256 total;\n        for (uint256 i = 0; i < branches.length; ++i) {\n            total += branches[i].balance;\n        }\n        return (address(this).balance, total);\n    }\n}\n\ncontract subAuthority is Root, Authority {\n    constructor() public {\n        self = address(this);\n    }\n\n    function RegisterInbranches(address newAddress) public override {\n        branches.push(newAddress);\n        emit Register(newAddress, self, \"R_authority\");\n    }\n\n    function GetBalance()\n        public\n        view\n        override\n        returns (uint256 selfBalance, uint256 branchesBalance)\n    {\n        uint256 total;\n        for (uint256 i = 0; i < branches.length; ++i) {\n            total += branches[i].balance;\n        }\n        return (address(this).balance, total);\n    }\n\n    function Distribute(uint256 value) public {\n        require(\n            value * branches.length <= address(self).balance,\n            \"Insufficient balance\"\n        );\n\n        for (uint256 i = 0; i < branches.length; ++i) {\n            payable(branches[i]).transfer(value);\n        }\n    }\n}\n",
  "sourcePath": "/home/regmicmahesh/Programming/blockchain/simpleblockchain/contracts/SimpleContract2.sol",
  "compiler": {
    "name": "solc",
    "version": "0.8.0+commit.c7dfd78e.Emscripten.clang"
  },
  "schemaVersion": "3.3.4",
  "updatedAt": "2021-02-20T13:01:00.461Z",
  "networkType": "ethereum",
  "devdoc": {
    "kind": "dev",
    "methods": {},
    "version": 1
  },
  "userdoc": {
    "kind": "user",
    "methods": {},
    "version": 1
  }
}